:400000000080002011000000ED0A0000ED0A000010B501F015F800F089FDC04670B5194C12232360182000F083FFB8225201164B1A60164B1649196016490A60164A1A6012
:4000400080214901154A1160154A1A600025154B1D604222144B1A60013A144B1A60013A134B1A6013490E2000F0D0FE0E2000F0C1FE114B1D60002000F0EAFF11232360D8
:4000800070BDC04630001040080301400000014042FF00800403014041FF00800003014040FF0080280003401C010140180101400C010140E51000000C02224010B572B671
:4000C000992212040C4B1A600C4A0D4B1A6020230C4A1360C42189020B4A11600B4A136001220B4B1A600B4A0B4B1A60FFF796FF00F0E8FC10BDC0460002024008EE0000A8
:400100000003024000020440080204401802044000030440B66D03000803044010B5064C2378002B07D1054B002B02D0044800E000BF0123237010BD4801002000000000F2
:40014000CC1F0000084B10B5002B03D00749084800E000BF07480368002B00D110BD064B002BFBD09847F9E7000000004C010020CC1F0000B80000200000000010B500F0D1
:40018000D9FD10BD00B587B00200044901A801F05BFA01A8FFF7F2FF07B000BDF020000010B500F0B1FD002801D0C0B200E0002010BDC04610B500F03BFE10BD70B50A21B2
:4001C00001F090F80500002407E0FFF7E9FF002807D10A30FFF7EEFF0134AC42F5D3012000E0002070BDC04670B5040064264643F017801BC00FF317F5185D4000F0B2FD3C
:400200000A20FFF7D7FF2448FFF7B8FF2000FFF7B9FF2248FFF7B2FF3000FFF7B3FF2048FFF7ACFF002422E0012000F08FFD0220FFF7C0FF002000F089FD0220FFF7BAFFEE
:400240006421200001F0BEF900290FD1FFF7A8FF00280BD01348FFF791FF002E00DC6442114B1A68944664441C6013E00134AC42DADB0D4C23689C46664426600B48FFF711
:400280007DFF2068642101F0B7F8FFF77BFF0848FFF774FF70BDC046F420000008210000102100001C210000640100203C2100005821000010B564235843074B1B68C01A1D
:4002C00005D0642101F098F8FFF78EFF02E00348FFF754FF10BDC046640100206021000010B50648FFF74AFF0020FFF7E3FF0022034B1A600348FFF741FF10BD802100002E
:40030000640100209821000070B50500B42800D9B425FA20C0006843B42101F06DF8F530FF3084B2200000F03FFF094B1D805C800848FFF723FF2800FFF724FF0648FFF785
:400340001DFF2000FFF71EFF0448FFF717FF70BDBC000020B8210000C8210000D421000010B52548FFF70AFF0122244B1A71002411E02000FFF7C8FFFA208000FFF71EFF29
:40038000002806D100221D4B1A711D48FFF7F6FE30E01E34A4B2B42C18D8184B1B79002BE7D1B42413E02000FFF7AEFFFA208000FFF704FF002806D10022104B1A711048F8
:4003C000FFF7DCFE16E01E3CA4B200E0B424002C03D00A4B1B79002BE5D1084B1B79002B05D05A20FFF790FF0648FFF7C7FE0022024B1A7110BDC046DC21000064010020C8
:40040000F82100001022000010B53C48FFF7B6FE3B48FFF7B3FE3B48FFF7B0FE1E20FFF7E3FEFA208000FFF7C9FE002865D01E204042FFF7D9FEFA208000FFF7BFFE002862
:400440005BD03148FFF79AFE0020FFF75DFFFA208000FFF7B3FE00284FD05A20FFF754FFFA208000FFF7AAFE002846D0B420FFF74BFFFA208000FFF7A1FE00283DD05A2025
:40048000FFF742FFFA208000FFF798FE002834D01E48FFF773FE002422E01D48FFF76EFE01342000FFF76EFE1A48FFF767FE1420FFF79AFE2D20FFF727FFFA204000FFF70A
:4004C0007DFE002819D014204042FFF78DFE8720FFF71AFFFA204000FFF770FE00280CD0022CDADD0C48FFF749FEFFF7F9FE5A20FFF70AFF0948FFF741FE10BD342200003C
:40050000542200007422000094220000B4220000D422000098250000DC220000FC22000010B52148FFF72AFE2048FFF727FE2048FFF724FE1F48FFF721FE1F48FFF71EFE10
:400540001E48FFF71BFE1E48FFF718FE1D48FFF715FE1D48FFF712FE1C48FFF70FFE1C48FFF70CFE1B48FFF709FE1B48FFF706FE1A48FFF703FE1A48FFF700FE1948FFF72D
:40058000FDFD1948FFF7FAFD1848FFF7F7FD1848FFF7F4FD1748FFF7F1FD1748FFF7EEFD1648FFF7EBFD10BD18230000482300005C23000080230000A0230000C423000064
:4005C000DC230000F823000018240000342400004C240000642400008024000098240000B4240000D4240000F824000010250000282500003C250000542500006C2500001C
:4006000010B52548FFF7BAFD2448FFF7B7FD244B5B79012B0AD0002B04D0022B0AD0032B0CD00EE01F48FFF7A9FD0AE01E48FFF7A5FD06E01D48FFF7A1FD02E01C48FFF778
:400640009DFD1C48FFF79AFD1B48FFF797FD144C6421206800F0D0FEFFF794FD1748FFF78DFD2068FFF78EFD1548FFF787FD1548FFF784FD144C2088FFF784FD1348FFF7ED
:400680007DFD6088FFF77EFD1148FFF777FD1148FFF774FD10BDC0469C250000B825000064010020C0250000C8250000D0250000D825000098250000E0250000082100003F
:4006C00010210000F4250000BC00002004260000102600001826000070B50400A64B5B79022B2AD1A44B9B79002B26D00200303AD2B2092A15D85A1CD2B29F498A71CB182C
:400700001872022A00D835E10C008A18002515720800083000F05CFF80B2FFF7F5FDA57128E1954DEB1800261E722800083000F04FFF80B2FFF7E8FDAE7120003038C3B295
:40074000472B00D913E198008C4B1B589F468C48FFF714FDFFF724FD041E1AD000F05CFA8848FFF70BFD312C06D10122824B5A718548FFF703FDFDE0322C06D102227E4BB0
:400780005A718248FFF7FAFCF4E08148FFF7F6FCF0E00A20FFF70EFDDCE7774B5B79012B0ED17C48FFF7EAFC3220FFF71DFDFA208000FFF7FFFC32204042FFF715FDD9E0B2
:4007C00001226D4B5A717448FFF7D8FC7148FFF7D5FC3220FFF708FDFA208000FFF7EAFC32204042FFF700FDC4E0634B5B79012B02D1FFF775FDBDE002225F4B5A71674851
:40080000FFF7BCFCB6E05C4C03236371FFF7FCFD00236371AEE0FFF7F3FEABE0FFF780FEA8E0554B5B79012B03D13220FFF742FDA0E05B48FFF7A2FC4F4B5B79002B02D0D3
:40084000022B04D006E05748FFF798FC02E05648FFF794FC4B48FFF791FC8BE0464B5B79012B1AD15148FFF789FC0EE01E20FFF7BBFCFA2464002000FFF79CFC1E20404288
:40088000FFF7B2FC2000FFF795FCFFF789FC0028ECD04748FFF772FC6CE04648FFF76EFC68E0354B5B79012B03D10A20FFF79CFC60E04148FFF762FC5CE02F4B5B79012B3A
:4008C00004D10A204042FFF78FFC53E03B48FFF755FC4FE0284B5B79022B06D13848FFF74DFC0022244B9A7144E03648FFF746FC40E0214B5B79022B02D1FFF731FD39E0AD
:400900003148FFF73BFC35E01B4B5B79022B06D10022194B1A712D48FFF730FC2AE02C48FFF72CFC26E0144B5B79022B03D10020FFF7EAFC1EE02748FFF720FC1AE00E4B72
:400940005B79022B03D15A20FFF7DEFC12E02248FFF714FC0EE0084B5B79022B03D1B420FFF7D2FC06E01D48FFF708FC02E01C48FFF704FC70BDC04664010020D01F000020
:400980003426000098250000582600007426000090260000B0260000C8260000E826000008270000C0250000D0250000382700006427000070270000A4270000D82700002C
:4009C0000C28000024280000542800008428000094280000C4280000F4280000242900005429000070B562B600F0F8F86420FFF7E1FB002000F0AAF9002000F0B3F90020BF
:400A000000F0BCF900F024FC5A20FFF77DFC224C2000FFF7B3FB214D2800FFF7AFFB2048FFF7ACFB1F48FFF7A9FB2800FFF7A6FB1D48FFF7A3FB2000FFF7A0FB1B48FFF7E8
:400A40009DFB1B48FFF79AFB1A48FFF797FB2000FFF794FB1848FFF791FB1848FFF78EFBFFF79EFB051E12D000F0D6F80D2D01D00A2D03D11248FFF781FB08E00648FFF740
:400A80007DFB2800FFF728FE0C48FFF777FB0A20FFF790FBE4E7C046982500007C290000AC290000DC2900000C2A0000342A0000502A0000742A0000982A0000BC2A0000B2
:400AC000C02A00000322054B1A60202304490B6004490A60044A13607047C04630003040000E3F4030004040000E4F4010B500F075FD03680C2B00D1FEE7FEE710B5030047
:400B0000084A1068C318084A9A1A802A02DC054A136005E000F062FD0C2303600120404210BDC046C0000020A801002070B50F4E0F4D13E029686B68AC68002202E001C9C4
:400B400001C30432A242FAD1E868002202E0002102C304328242FAD11035013E002EE9D100F042FDFFF73EFFFEE7C04601000000242C000010B500230AE0032B03D89A004E
:400B80000849505800E008489900084A885001332C2BF2D9FFF792FA80229205044B1A6010BDC04600000000ED0A00000000002008ED00E010B500F091F810BD10B500F0F0
:400BC00039F810BD10B5044A1368802109060B431360FFF7EFFF10BD0000274010B5064B1B78002B04D1FFF7E9FF0122024B1A70FFF7E8FF10BDC04676010020014B18684C
:400C00007047C04640032740024B1B681F2018407047C04608032740044B1B681F221340082BF9D0024B18607047C0460802274040022740154A164B1A600023154A13608A
:400C40001549164A1160164A16490A6007201649086016490B6006381549086015490A60154A13600421154A1160154A1360154A1360154A1360154A1360154A1360154A58
:400C800013601268144B1A807047C0460B000002000027404000274001000A00480027400700008000032740040327401003274044002740000227400402274050002740AB
:400CC000880E2740C80E2740480F2740080F2740C80F2740880F274078010020064A1168064B0B40902109040B431360044B1A88044B1A607047C04600020240FFFF0FFFFE
:400D000078010020880F274010B5FFF77DFF002802D0FFF773FF00E00020054B1A68D8239B001A4203D01A00014B1A60002010BDC00F274070B50500002402E0FFF76CFF58
:400D40000134285D0028F9D170BDC04604490A68D2B220239A43400118401043086070470003044004490A68D2B202239A43400018401043086070470003044004490A688A
:400D8000D2B210239A4300011840104308607047000304400C4B1B689B001C22134018330A4A1268920803210A40D34008490868084A02400A60084A944663441B78DBB2A1
:400DC000064A13607047C046080F03402800034000002240FFFFFFBF4DF3FF0F0C0F0340034B18688023DB05184000D001207047000022401F2318401E3B8340014A1360BD
:400E00007047C04600E100E001BE704770B504000D001C2802D90020FFF7F6FF1034A40080239B059C4664442068256070BDC04610B5040006E0084B586800F019FA074B52
:400E40009C46644480231B029C42F4D8024B9868604300F00DFA10BDC40000200080FFFF70B582B000F0E2F800284DD000F009FA0500264B1A6892001C231A401832244B33
:400E80001B689B0803210B40DA400021214B1960214C2168214B0B4021494A438021C9018C466244D20B013A5205520D1343A0225203134323601B4B1B680193302000F025
:400EC000E7F9194A13688021C9050B4313602668164B1E40002407E00120FFF7A9FF1034A30533430C4A1360EE2CF5D90120FFF79FFFFF239B051E43074B1E60019A094B43
:400F00001A60280000F0C1F902B070BD080F0340280003400C0F03400800224000F800C040420F003000104000002240FFFF3FC0F0B583B0040018280BD01C2809D0202875
:400F400007D0242805D0282803D02C2801D0302849D100F096F90190FFF742FF002803D0FFF718FF012600E00026214A136807218B4313601F4BE3181B78DBB21E4A136094
:400F80001E4A13688B4313601D4803687F22934319001C4BE3181B7813400B430360322000F066F9182C16D9114F3B680725AB431A0023001C3B9B082B4013433B603220DE
:400FC00000F056F93A68AA432300183B9B082C001C4014433C60012E01D1FFF741FF019800F053F902E00020FFF70EFF03B0F0BD080F03404DF3FF0F0C0F0340100F0340B6
:40100000180F034034F3FF0F10B5034B1B7B584300F02EF910BDC046C4000020024B1868800F80077047C0460C022240034B1B68002B01DA012000E00020704700002240DE
:40104000014A024B1A6070476588EDAC3800034010B50400FFF7E2FFA0421AD0144A136803218B431360134B1B689B0F01D17C2001E086204000FFF7C7FF00F002F90D4A3E
:4010800013689B009B08A40FA4071C43146000F0FCF8074B1B6803229343064A1268920F01D1023200E001221343014A136010BD140222400C02224010B5040000F0E1F8C3
:4010C000054B1C4005490B68054A134023430B600B6800F0DAF810BD0404040010022240FBFBFBFF10B5244B1B685B0715D5234B1B685B070ED5224B5969042001401F4C66
:4011000022688A4322605A6982435A619B68002B00D098470420FFF7CFFF174B1B685B0518D5164B1B685B0510D5154B59698022D2001140114802688A4302605969114A7D
:401140000A405A61DB68002B00D098478020C000FFF7B2FF084B1B685B030CD5074B1B685B0304D5064B1B69002B00D098478020C002FFF7A1FF10BD10022240D800002045
:401180007C010020FFFBFFFF0004000C014B18607047C046080120400004000C014B18607047C046140120400004000C014B18607047C0460C01204070B504000D0000F076
:4011C00060F8AC40024B1C6000F05FF870BDC0460800204010B500F054F8064A116801230B43136000F051F818210120FFF7E4FF10BDC04600002040014B18607047C04631
:401200003801204010B50D4C8023DB042360236823600020FFF7B8FF236823600C22084B1A600120FFF7E8FF3122064B1A600648FFF7B2FF0548FFF7B7FF10BD00012040D6
:401240002401204028012040204E0000DC05000010B5064B1B78002B04D1FFF7D3FF0122024B1A70FFF7B6FF10BDC046940100200230800803D001300238FCD1C046C046A2
:401280007047EFF3108072B6704780F31088704770B50400FFF7F5FF0500102C05D8104A136803218B43136016E0202C07D80C490B6803229343023A13430B600CE0302CD0
:4012C00007D807490B6803229343013A13430B6002E00020FFF798FD2800FFF7D6FF70BD30001040002243088B4274D303098B425FD3030A8B4244D3030B8B4228D3030CC6
:401300008B420DD3FF22090212BA030C8B4202D31212090265D0030B8B4219D300E0090AC30B8B4201D3CB03C01A5241830B8B4201D38B03C01A5241430B8B4201D34B0328
:40134000C01A5241030B8B4201D30B03C01A5241C30A8B4201D3CB02C01A5241830A8B4201D38B02C01A5241430A8B4201D34B02C01A5241030A8B4201D30B02C01A524136
:40138000CDD2C3098B4201D3CB01C01A524183098B4201D38B01C01A524143098B4201D34B01C01A524103098B4201D30B01C01A5241C3088B4201D3CB00C01A52418308C7
:4013C0008B4201D38B00C01A524143088B4201D34B00C01A5241411A00D20146524110467047FFE701B5002000F0F0F802BDC0460029F7D076E7704703460B437FD4002233
:4014000043088B4274D303098B425FD3030A8B4244D3030B8B4228D3030C8B420DD3FF22090212BA030C8B4202D31212090265D0030B8B4219D300E0090AC30B8B4201D389
:40144000CB03C01A5241830B8B4201D38B03C01A5241430B8B4201D34B03C01A5241030B8B4201D30B03C01A5241C30A8B4201D3CB02C01A5241830A8B4201D38B02C01AF6
:401480005241430A8B4201D34B02C01A5241030A8B4201D30B02C01A5241CDD2C3098B4201D3CB01C01A524183098B4201D38B01C01A524143098B4201D34B01C01A5241B8
:4014C00003098B4201D30B01C01A5241C3088B4201D3CB00C01A524183088B4201D38B00C01A524143088B4201D34B00C01A5241411A00D201465241104670475DE0CA0F30
:4015000000D04942031000D34042534000229C4603098B422DD3030A8B4212D3FC22890112BA030A8B420CD3890192118B4208D3890192118B4204D389013AD0921100E0CF
:401540008909C3098B4201D3CB01C01A524183098B4201D38B01C01A524143098B4201D34B01C01A524103098B4201D30B01C01A5241C3088B4201D3CB00C01A5241830812
:401580008B4201D38B00C01A5241D9D243088B4201D34B00C01A5241411A00D20146634652415B10104601D34042002B00D54942704763465B1000D3404201B5002000F00B
:4015C00005F802BD0029F8D016E770477047C04610B50A22002100F0EBF810BD014B18687047C0463C0100200E4B70B500251E000D4CE41AA410A54204D0AB00F3589847D9
:401600000135F8E701F0FCFA084B00251E00084CE41AA410A54204D0AB00F35898470135F8E770BD0C2C00000C2C00000C2C0000142C0000002310B59A4203D0CC5CC45481
:401640000133F9E710BD00000EB410B59DB002A9029008610B48822488604861012040421FABC881084804CBA400006801938C8100F00CF90023029A13701DB010BC08BC6F
:4016800003B01847FFFFFF7F3C010020F0B51E00454B87B01B680192029308220B00059003911C7802995D1C09194878104001D02B00F6E72D2C04D19D1C5C780123009387
:4016C00004E000902B2C01D15C789D1C002E02D0102E0AD162E0302C5ED120222B789343582B54D110266C780235009F31007B1E9F412E4BFF183800FFF77AFE38000491DA
:401700003100FFF7EFFD00230322070094461800029A121951780422114201D0303C07E06246114017D03722012900D02032A41AA64210DD5A1C0BD0B84207D802D1049B74
:401740009C4203DC70430123201801E001235B422C780135DCE75A1C0BD10098059A431E9841124BC01822231360019B002B0AD117E0009A002A00D04042019A002A10D05A
:40178000039A002B00D06A1E019B1A6009E03024002EAAD10826A8E70A26A6E7302C9CD0A3E707B0F0BDC04640010020FFFFFF7F10B513000A00010002480068FFF766FF0A
:4017C00010BDC0463C010020F0B58E6885B007000C00039201939E4243D890238A89DB001A423ED003250969236801985B1A029363695D43EB0F5D19029B6D1001331B1882
:40180000AB4200D91D00530510D52900380000F037FB061E14D0029A2169FFF70BFFA289194B134080221343A38112E02A00380000F086FB061E0CD12169380000F0D4FA93
:401840000C23402201203B60A38940421343A38117E0029B2661F61826606561019EED1AA560019BB34200D21E0032000399206800F0A5FA0020A3689B1BA36023689E1947
:40188000266005B0F0BDC0467FFBFFFFF0B59FB0029005938B890F0016001B0610D50B69002B0DD1402100F0EBFA38603861002804D10C23029A01381360D8E040237B6116
:4018C000002306AD6B6120336B761033AB7634002378002B03D1A31B049312D003E0252BF9D00134F4E7A31B320039000298FFF76BFF431C00D1B4E06A69049B94466344C3
:401900006B612378002B00D1ABE00122002352426A6002A95432521801342B60EB60AB601370AB65534E21780522300000F03CFA002807D00123801B83402A68013413437C
:401940002B60EFE72B68DA0604D55322202102A8121811701A0704D553222B2102A81218117022782A2A03D0099B00200A210EE0059A111D12680591002A01DB099204E09F
:401980005242EA60022213432B6001340BE02278303A092A04D84B4301349B180120F6E7002800D0099323782E2B1ED163782A2B0AD1059B02341A1D1B680592002B01DAEE
:4019C00001235B42079310E000230A201A0001346B6021783039092904D84243013452180123F6E7002B00D00792234E21780322300000F0D9F9002806D04023801B83408C
:401A00002A68013413432B60217806221B48661C297600F0C9F9002812D0194B002B06D10722059B073393430833059314E005AB00933A00134B2900029800E000BF07E0D3
:401A400005AB00933A000F4B2900029800F08AF80390039B013304D06B69039A9B186B6135E7BB890B985B0601D5012040421FB0F0BDC046CB2B0000D12B0000D52B0000E0
:401A800000000000C9170000F7B5170001938A680B6900900C00934200DA130022003B6043321278002A01D001333B6023689B0602D53B6802333B60062523681D401ED02E
:401AC000230043331B785A1E9341226892061CD53020E1184331087021005A1C45310978A2184332023311700FE022000123193201990098089EB047431C0ED00135E368A6
:401B00003A689B1A9D42F0DBDAE72200019943320098089DA847431C02D10120404220E006232068E1683A6803400025042B03D18D1AEB43DB171D40A3682269934201DD3D
:401B40009B1AED180027BD420AD0220001231A3201990098089EB047431CDED00137F2E70020FEBDF0B58BB006920A0043320793059004920A7E0C00109B6E2A00D1ABE062
:401B800011D8632A22D009D8002A00D1B5E0582A00D0C5E045310A70814A4FE0642A1DD0692A1BD0BCE0732A00D1AAE009D86F2A29D0702A00D0B3E0202209680A432260EC
:401BC00037E0752A1FD0782A33D0A9E00E001A684236111D196013683370A4E021681A68080606D4490604D5111D19600023D55E02E0111D19601568002D3BDA2D23049A73
:401C00006D42137036E021681A68080606D4490604D51568111D1960ADB202E0111D196015685F4B227E039308276F2A1DD00A271BE022007821453211705A4A196803928A
:401C4000081D226818600D68100602D4500600D5ADB2D30702D520231A4322601027002D03D1202322689A4322602300002243331A7002E00A274A4B03936368A360002B9F
:401C800009DB0422216891432160002D05D1049E002B11D07BE0002D79D0049E28003900FFF7A6FB039B013E5B5C280033703900FFF718FB051EF1D1082F09D12368DB071C
:401CC00006D563682269934202DC3023013E3370049B9B1B23612BE009681A68080607D4490605D5111D19601368A28A1A8004E0111D1960136862691A600023049E236166
:401D000016E01A68111D1960166800216268300000F04AF8002801D0801B6060636803E0260042363270012323610023049A1370079B09AA00932100069B0598FFF7A4FEAC
:401D4000431C02D10120404227E02369320006990598079DA847431CF4D0236800259B070FD4099BE068984217DA180015E022000123193206990598079EB047431CE1D065
:401D80000135E368099A9B1A9D42F0DBE9E72600039B42361B7833708EE70BB0F0BDC046DC2B0000ED2B0000C9B28218904204D003788B4202D00130F8E70020704710B5DB
:401DC000884202D98B18984201D3002305E09B1A013A08D3995C8154FAE7934203D0CC5CC4540133F9E710BD70B50500002944D00C1F2368002B00DAE418280000F0D8F8A0
:401E00001E4A13681100002B02D16360146031E0A3420DD92268A018834203D118685B688218226063600C6024E0A24203D813005A68002AF9D11E689819A0420BD121682A
:401E4000711858181960824214D110685268411819605A600EE0A04202D90C232B6009E021686018824203D1106852684118216062605C60280000F09CF870BD9C01002082
:401E8000032370B5CD1C9D43083506000C2D01D20C2501E0002D01DBA94202D90C23336048E0300000F084F8234B1C681A002100002913D00B685B1B0DD40B2B02D90B60D9
:401EC000CC181EE08C4202D1636813601AE04B6863600C0016E00C004968E9E7174C2368002B03D1300000F051F820602900300000F04CF8431C18D00323C41C9C43A042B1
:401F00000DD12560300000F054F8200007220B30231D9043C31A0ED05A42E2500BE0211A300000F033F8431CEBD10C233000336000F03FF8002070BD9C010020980100204A
:401F4000F8B506000C001500002904D11100FFF797FF040018E0002A03D1FFF745FF2C0012E000F027F885420ED929003000FFF787FF071E07D021002A00FFF75BFB21005A
:401F80003000FFF731FF3C002000F8BD002370B5064C050008002360FEF7B0FD431C03D12368002B00D02B6070BDC046A0010020704770470B1F1A68101F002A04DA8918C4
:401FC00004390B68D01804387047000000000000260900009A070000EA070000220800005C0800003E0900006E0900006E0900006E090000560900006E0900006E0900000E
:402000006E0900006E0900006E0900001C0800006E090000D40800006E0900006E090000060800006E0900006E0900006E0900001C0800006E090000BA0800006E0900008F
:402040006E0900004E0700006E0900006E090000080900006E0900006E090000160800006E090000A20800006E090000F20800006E0900006E0900006E0900006E0900001B
:402080006E0900006E0900006E0900006E0900006E090000D40800006E0900006E090000060800006E0900006E0900006E0900001C0800006E090000BA0800006E090000BC
:4020C0006E0900004E0700006E0900006E090000080900006E0900006E090000160800006E090000A20800006E090000F2080000256C6400535445505045523A204D6F76D3
:40210000696E672000000000206D6D2028000000207374657073290D0A000000535445505045523A204D6F76656D656E7420696E7465727275707465640D0A00535445507F
:402140005045523A20446F6E652120506F736974696F6E3A20000000206D6D0D0A000000535445505045523A20416C726561647920617420706F736974696F6E0D0A0000B7
:40218000535445505045523A20486F6D696E672E2E2E0D0A00000000535445505045523A20486F6D6520706F736974696F6E207365740D0A00000000534552564F3A204157
:4021C0006E676C653A200000C2B02C2050756C73653A200075730D0A00000000534552564F3A205374617274696E672073776565702E2E2E0D0A0000534552564F3A205369
:40220000776565702073746F707065640D0A0000534552564F3A20537765657020636F6D706C6574652C2063656E74657265640D0A0000000D0A3D3D3D20535441525449DF
:402240004E472044454D4F204D4F4445203D3D3D0D0A0000507265737320616E79206B657920746F2073746F702E2E2E0D0A0D0A000000002D2D2D20537465707065722028
:402280004D6F746F722044656D6F202D2D2D0D0A000000000D0A2D2D2D20536572766F204D6F746F722044656D6F202D2D2D0D0A000000000D0A2D2D2D20436F6F7264692B
:4022C0006E617465642044656D6F202D2D2D0D0A000000004379636C652000000D0A2D2D2D20526573657474696E6720746F20686F6D65202D2D2D0D0A0000000D0A3D3DD1
:402300003D2044454D4F20434F4D504C455445203D3D3D0D0A0000000D0A3D3D3D3D3D3D3D3D3D3D204D4F544F5220434F4E54524F4C2053595354454D203D3D3D3D3D3DB6
:402340003D3D3D3D0D0A000047454E4552414C20434F4D4D414E44533A0D0A0020204D3120202D2053776974636820746F2053746570706572206D6F64650D0A00000000F2
:4023800020204D3220202D2053776974636820746F20536572766F206D6F64650D0A00002020442020202D2052756E2064656D6F2028626F7468206D6F746F7273290D0A2D
:4023C000000000002020532020202D2053686F77207374617475730D0A0000002020482F3F202D2053686F7720746869732068656C700D0A000000000D0A5354455050457D
:402400005220434F4D4D414E445320284D6F64652031293A0D0A00002020312020202D204D6F76652075702F646F776E2035306D6D0D0A002020322020202D20476F2068CC
:402440006F6D652028306D6D290D0A002020332020202D20476F20746F2035306D6D0D0A000000002020342020202D20436F6E74696E756F757320746573740D0A000000EB
:402480002020552020202D204D6F76652075702031306D6D0D0A000020204A2020202D204D6F766520646F776E2031306D6D0D0A000000000D0A534552564F20434F4D4DC2
:4024C000414E445320284D6F64652032293A0D0A000000002020413C616E676C653E202D2053657420616E676C652028302D313830290D0A000000002020572020202D2099
:4025000053746172742073776565700D0A0000002020502020202D2053746F702073776565700D0A000000002020302020202D20476F20746F2030C2B00D0A0020203520B0
:4025400020202D20476F20746F203930C2B00D0A000000002020392020202D20476F20746F20313830C2B00D0A0000003D3D3D3D3D3D3D3D3D3D3D3D3D3D3D3D3D3D3D3D1E
:402580003D3D3D3D3D3D3D3D3D3D3D3D3D3D3D3D3D3D3D3D3D3D0D0A0D0A00000D0A3D3D3D2053595354454D20535441545553203D3D3D0D0A0000004D6F64653A2000000B
:4025C00049444C45000000005354455050455200534552564F00000044454D4F000000005374657070657220506F736974696F6E3A200000536572766F20416E676C653AE4
:4026000020000000C2B0202870756C73653A2000207573290D0A00003D3D3D3D3D3D3D3D3D3D3D3D3D3D3D3D3D3D3D3D0D0A0D0A0000000053656C656374206D6F64653AA4
:4026400020313D537465707065722C20323D536572766F3A20000000537769746368656420746F2053544550504552206D6F64650D0A0000537769746368656420746F200A
:40268000534552564F206D6F64650D0A00000000496E76616C6964206D6F64652E20557365204D31206F72204D320D0A00000000546573743A2055702F446F776E20353048
:4026C0006D6D0D0A000000004175746F2D737769746368656420746F2053544550504552206D6F64650D0A004175746F2D737769746368656420746F20534552564F206D46
:402700006F64650D0A000000436F6D6D616E642027332720697320666F722053544550504552206D6F64652E2043757272656E74206D6F64653A2000436F6E74696E756FE0
:40274000757320746573742028707265737320616E79206B657920746F2073746F70290D0A00000053746F707065640D0A000000436F6D6D616E6420273427206973206649
:402780006F722053544550504552206D6F64652E20557365204D312066697273742E0D0A00000000436F6D6D616E642027552720697320666F722053544550504552206DD5
:4027C0006F64652E20557365204D312066697273742E0D0A00000000436F6D6D616E6420274A2720697320666F722053544550504552206D6F64652E20557365204D3120E0
:4028000066697273742E0D0A00000000456E74657220616E676C652028302D313830293A20000000436F6D6D616E642027412720697320666F7220534552564F206D6F6465
:40284000652E20557365204D322066697273742E0D0A0000436F6D6D616E642027572720697320666F7220534552564F206D6F64652E20557365204D322066697273742E61
:402880000D0A000053776565702073746F707065640D0A00436F6D6D616E642027502720697320666F7220534552564F206D6F64652E20557365204D322066697273742EE3
:4028C0000D0A0000436F6D6D616E642027302720697320666F7220534552564F206D6F64652E20557365204D322066697273742E0D0A0000436F6D6D616E64202735272064
:40290000697320666F7220534552564F206D6F64652E20557365204D322066697273742E0D0A0000436F6D6D616E642027392720697320666F7220534552564F206D6F6461
:40294000652E20557365204D322066697273742E0D0A0000556E6B6E6F776E20636F6D6D616E642E20547970652027482720666F722068656C702E0D0A0000002A2A2A2A99
:402980002A2A2A2A2A2A2A2A2A2A2A2A2A2A2A2A2A2A2A2A2A2A2A2A2A2A2A2A2A2A2A2A2A2A2A2A2A2A2A0D0A0000002A202020202050536F43203435303053204D4F542F
:4029C0004F5220434F4E54524F4C2053595354454D202020202A0D0A000000002A20202020202020202053746570706572202B20536572766F20436F6E74726F6C20202027
:402A000020202020202A0D0A0000000056657273696F6E20312E30202D20496E746567726174656420546573742053797374656D0D0A0000496E697469616C697A61746945
:402A40006F6E20636F6D706C657465210D0A000020202D2053746570706572206D6F746F723A2052454144592028617420306D6D290D0A0020202D20536572766F206D6F19
:402A8000746F723A20524541445920286174203930C2B0290D0A0000547970652027482720666F722068656C702C2027442720666F722064656D6F0D0A0000003E20000093
:402AC0000D0A3E200000000043000020202020202020202028282828282020202020202020202020202020202020208810101010101010101010101010101004040404046A
:402B0000040404040410101010101010414141414141010101010101010101010101010101010101010110101010101042424242424202020202020202020202020202026F
:402B400002020202020210101010200000000000000000000000000000000000000000000000000000000000000000000000000000000000000000000000000000000000E9
:402B80000000000000000000000000000000000000000000000000000000000000000000000000000000000000000000000000000000000000000000000000000000000015
:402BC0000000000000000000000000232D302B2000686C4C0065666745464700303132333435363738394142434445460030313233343536373839616263646566000000E2
:402C0000F8B5C046F8BC08BC9E46704745010000750B0000F8B5C046F8BC08BC9E4670471D010000382C0000B8000020900000006000000000000000000000005A00DC05BD
:402C4000A8010020010000000000E02EC05D00001800000000366E01040404000000000000000000000000000000000000000000000000000000000000000000C82A0000A4
:402C8000000000000000000000000000000000000000000000000000000000000000000000000000000000000000000000000000000000000000000000000000DC00002018
:402CC000CA2A0000000000000000000000000000000000000000000000000000000000000000000000000000000000000000000000000000000000000000000000000000E0
:402D00000000000000000000000000000000000000000000000000000000000000000000000000000000000000000000000000000000000000000000000000000000000093
:402D40000000000000000000000000000000000000000000000000000000000000000000000000000000000000000000000000000000000000000000000000000000000053
:402D80000000000000000000000000000000000000000000000000000000000000000000000000000000000000000000000000000000000000000000000000000000000013
:402DC00000000000000000000000000000000000000000000000000000000000000000000000000000000000000000000000000000000000000000000000000000000000D3
:020000040003F7
:0200000490303A
:020000004C0FA3
:0200000490402A
:4000000000000000000000000000000000000000000000000000000000000000000000000000000000000000000000000000000000000000000000000000000000000000C0
:400040000000000000000000000000000000000000000000000000000000000000000000000000000000000000000000000000000000000000000000000000000000000080
:0200000490501A
:0C0000000002280D11B80001281B5DC78C
:0200000490600A
:0100000001FE
:00000001FF