:400000000080002011000000010700000107000010B500F0F9FD00F093FBC04670B5184C12232360182000F067FD80225200154B1A60154B154A1A6080214901144A116042
:40004000144A1A60E0210901134A1160134A1A600025134B1D604222124B1A60013A124B1A6012490E2000F08FFC0E2000F076FC0F4B1D60002000F0CFFD1123236070BD80
:4000800030001040000301400000014040FF00800803014042FF00800403014041FF0080280003400C01014000010140AD0C00000C02224010B572B6EE22114B1A609922B5
:4000C0001204104B1A60EE2212020F4B1A6003220E4B1A6021320E4B1A6020230D4A1360C42189020C4A11600C4A1360D82212010B4B1A60FFF792FF00F0EEFA10BDC046E3
:4001000000010240000202400003024000010440080104400002044008020440180204400803044010B5064C2378002B07D1054B002B02D0044800E000BF0123237010BDAF
:400140004001002000000000A41F0000084B10B5002B03D00749084800E000BF07480368002B00D110BD064B002BFBD09847F9E70000000044010020A41F0000B80000207D
:400180000000000010B500F0ADFB10BD00B585B00200044901A801F0E1FA01A8FFF7F2FF05B000BDA81F000000B583B002000449684601F0D3FA6846FFF7E4FF03B000BD04
:4001C000AC1F000070B504000E00FA2292000021292000F0E3FE002804D0FA20800000F03FFF14E0FA25AD00200A290000F064FFFF202040290000F05FFF2900300000F0AB
:400200005BFF280000F02CFF012000F0F5FB70BD30B583B0050000226B46DA71FA2292000021292000F0BAFE002805D0FA20800000F016FF00201AE0FA24A400280A21002D
:4002400000F03AFFFF202840210000F035FF22000121292000F0A2FF6B46DD1D22002900012000F04DFF200000F0FAFE287803B030BDC04610B501214A48FFF7A3FF012197
:4002800082208000FFF79EFF00219620FFF79AFFFD219720FFF796FF0021E320FFF792FF0421E420FFF78EFF0221E520FFF78AFF0121E620FFF786FF0321E720FFF782FF80
:4002C0000221F520FFF77EFF0521D920FFF77AFFCE21DB20FFF776FF0321DC20FFF772FFF821DD20FFF76EFF00219F20FFF76AFF3C21A320FFF766FF0021B720FFF762FF67
:400300003C21BB20FFF75EFF0921B220FFF75AFF0921CA20FFF756FF0121CC204000FFF751FF1721D8204000FFF74CFF0021AE20FF30FFF747FF0521FF20FFF743FF052146
:4003400080204000FFF73EFF05219A20FF30FFF739FF1B21D3204000FFF734FF3E21D6204000FFF72FFF1F21A820FF30FFF72AFF00213020FFF726FF32211C20FFF722FF54
:4003800011212D20FFF71EFF01212E20FFF71AFF10211120FFF716FF24211420FFF712FF10BDC04607020000F8B52F48FFF7EAFE0020FFF72DFF04002C48FFF7E3FE2000B0
:4003C000FFF7F2FEB42C04D02948FFF7DBFE002048E02848FFF7D6FE0120FFF719FF05000220FFF715FF04002348FFF7CBFE2809C0B2FFF7CBFE214E3000FFF7C3FE0F2725
:4004000028003840FFF7C2FE1D48FFF7BBFE2009C0B2FFF7BBFE3000FFF7B4FE38002040FFF7B4FE1748FFF7ADFE1620FFF7F0FE01280CD11448FFF7A5FEFFF71BFF0021AA
:400440001620FFF7BFFE1148FFF79CFE02E01048FFF798FE00211820FFF7B4FE0D48FFF791FE0120F8BDC046B41F0000D81F0000E41F0000FC1F00000420000010200000F1
:4004800014200000502200002420000058200000742000008C20000070B507211520FFF791FE01211820FFF78DFE0024012000F0A3FA4F20FFF7ACFE0134A4B2642C04D9DF
:4004C0001348FFF75FFEFF2020E04307EED56220FFF79EFE05004D20FFF79AFE0009C4B207211520FFF76EFE002C0CD00B2C0CD00848FFF747FEA0B2FFF748FE0648FFF758
:4005000041FEFF2002E0280000E0FF2070BDC046E8210000F4210000F0210000F8B562B600F066F900F02AFC642000F065FA5248FFF728FE514C2000FFF724FE5048FFF7DC
:4005400021FE2000FFF71EFEFFF72EFF00280AD14C48FFF717FE4C48FFF714FEFA20800000F04AFAFAE74948FFF70CFE4848FFF709FE00250026FFF78FFF040007000136EB
:40058000B6B20A21300001F0ADF889B201290DD14048FFF7F7FD0A21300001F01DF8013080B2FFF7F3FD3C48FFF7ECFD3B48FFF7E9FD3000FFF7EAFD3948FFF7E3FDFF2F2F
:4005C00005D13848FFF7DEFD0135EDB244E0A0B2FFF7DCFD3448FFF7D5FD0A21200000F0FBFFC4B2142C00D914243048FFF7CAFD002504E02E48FFF7C5FD0135EDB2AC424B
:40060000F8D804E02B48FFF7BDFD0134E4B2132CF8D92948FFF7B6FD132F04D82748FFF7B1FD002518E0312F04D82548FFF7AAFD002511E0632F04D82248FFF7A3FD0025B1
:400640000AE0952F04D82048FFF79CFD002503E01E48FFF797FD00251D48FFF793FD0A2D05D91C48FFF78EFDFFF79EFE0025FA20400000F0C1F97EE7FC2100000422000094
:400680002C220000542200007422000088220000B4220000DC220000F822000000230000E01F00000423000020230000282300002C230000F0210000642100003023000039
:4006C00048230000502300005823000060230000502200006C2300000322054B1A60202304490B6004490A60044A13607047C04630003040000E3F4030004040000E4F4084
:4007000010B500F0F5FF03680C2B00D1FEE7FEE710B50300084A1068C318084A9A1A802A02DC054A136005E000F0E2FF0C2303600120404210BDC046BC000020B8010020A3
:4007400070B50F4E0F4D13E029686B68AC68002202E001C901C30432A242FAD1E868002202E0002102C304328242FAD11035013E002EE9D100F0C2FFFFF7D0FEFEE7C046EE
:4007800001000000F023000010B500230AE0032B03D89A000849505800E008489900084A885001332C2BF2D9FFF784FC80229205044B1A6010BDC04600000000010700001B
:4007C0000000002008ED00E010B500F075F810BD10B500F01DF810BD10B5044A1368802109060B431360FFF7EFFF10BD0000274010B5064B1B78002B04D1FFF7E9FF0122BD
:40080000024B1A70FFF7E8FF10BDC0465C010020154A164B1A600023154A13601549164A1160164A16490A6007201649086016490B6006381549086015490A60154A1360D7
:400840000421154A1160154A1360154A1360154A1360154A1360154A1360154A13601268144B1A807047C0460B000002000027404000274001000A0048002740070000800B
:4008800000032740040327401003274044002740000227400402274050002740880E2740C80E2740480F2740080F2740C80F2740880F27405E010020064A1168064B0B4018
:4008C000902109040B431360044B1A88044B1A607047C04600020240FFFF0FFF5E010020880F274070B50500002402E000F09CFC0134285D0028F9D170BDC0460C4B1B68C4
:400900009B001C22134018330A4A1268920803210A40D34008490868084A02400A60084A944663441B78DBB2064A13607047C046080F03402800034000002240FFFFFFBF42
:400940004DF3FF0F0C0F0340034B18688023DB05184000D001207047000022401F2318401E3B8340014A13607047C04600E100E01F2318401E3B8340014A13607047C046F5
:4009800080E100E001BE704770B504000D001C2802D90020FFF7F6FF1034A40080239B059C4664442068256070BDC04670B504000E00032902D90020FFF7E4FF1C2C02D9D1
:4009C0000020FFF7DFFF03252540ED00063500F024FCA408A400074B9C46644421680323AB4099430B003100A9401943216000F018FC70BD00E400E010B5040006E0084BA3
:400A0000586800F001FC074B9C46644480231B029C42F4D8024B9868604300F0F5FB10BDC00000200080FFFF70B582B000F0E2F800284DD000F0F1FB0500264B1A689200FC
:400A40001C231A401832244B1B689B0803210B40DA400021214B1960214C2168214B0B4021494A438021C9018C466244D20B013A5205520D1343A0225203134323601B4B6E
:400A80001B680193302000F0DDFB194A13688021C9050B4313602668164B1E40002407E00120FFF7A9FF1034A30533430C4A1360EE2CF5D90120FFF79FFFFF239B051E43F7
:400AC000074B1E60019A094B1A60280000F0A9FB02B070BD080F0340280003400C0F03400800224000F800C040420F003000104000002240FFFF3FC0F0B583B00400182851
:400B00000BD01C2809D0202807D0242805D0282803D02C2801D0302849D100F07EFB0190FFF712FF002803D0FFF7E8FE012600E00026214A136807218B4313601F4BE3180A
:400B40001B78DBB21E4A13601E4A13688B4313601D4803687F22934319001C4BE3181B7813400B430360322000F04EFB182C16D9114F3B680725AB431A0023001C3B9B08EB
:400B80002B4013433B60322000F03EFB3A68AA432300183B9B082C001C4014433C60012E01D1FFF741FF019800F03BFB02E00020FFF7E8FE03B0F0BD080F03404DF3FF0F5F
:400BC0000C0F0340100F0340180F034034F3FF0F10B5034B1B7B584300F016FB10BDC046C0000020024B1868800F80077047C0460C022240034B1B68002B01DA012000E0B6
:400C00000020704700002240014A024B1A6070476588EDAC3800034010B50400FFF7E2FFA0421AD0144A136803218B431360134B1B689B0F01D17C2001E086204000FFF751
:400C4000C7FF00F0EAFA0D4A13689B009B08A40FA4071C43146000F0E4FA074B1B6803229343064A1268920F01D1023200E001221343014A136010BD140222400C022240BE
:400C800010B5040000F0C9FA054B1C4005490B68054A134023430B600B6800F0C2FA10BD0404040010022240FBFBFBFF10B5244B1B685B0715D5234B1B685B070ED5224BD6
:400CC0005969042001401F4C22688A4322605A6982435A619B68002B00D098470420FFF7CFFF174B1B685B0518D5164B1B685B0510D5154B59698022D2001140114802687C
:400D00008A4302605969114A0A405A61DB68002B00D098478020C000FFF7B2FF084B1B685B030CD5074B1B685B0304D5064B1B69002B00D098478020C002FFF7A1FF10BDA9
:400D400010022240D400002060010020FFFBFFFF10B50720FFF702FE10BDC04610B500F01DF810BD10B5044A1368802109060B431360FFF7EDFF10BD0000244010B5064B1E
:400D80001B78002B04D1FFF7E9FF0122024B1A70FFF7E8FF10BDC0467801002010B50024184B1C60184A194B1A60194B194A1360194A1460194A1460194A1360194B1C60D9
:400DC0000720FFF7D5FD03210720FFF7EFFD16490720FFF7D9FD154B1C60154B1C60154B1C60154B1C60154B1C60154B1C601022144B1A70144B1C80144B1C60144B1C6091
:400E000010BDC04600002440770800806000244007010080000324400403244010032440000224400402244099120000C80E2440880E2440480F2440080F2440C80F2440C7
:400E4000880F24408801002098010020A8010020A001002010B50E4A13685B005B08136000230C490B600C490B600C4804680C49214001600B490B600B490B6010210B4B43
:400E800019701368802109060B43136010BDC04600002440680024406C00244060002440FF5CFFFF880F2440C80F24408801002010B504000368002B09D00120FFF788FE19
:400EC0002368013B2360002B03D0002003E0002001E08020000610BD10B5002839DBC023034208D00022284B1A601032274B1A70002310243DE0C3070FD5244B1B781B079F
:400F00002BD5234B1B685B0001D5002300E0012310211E4A117001242BE0C30520D4830722D4C30605D51022184B1A70002300241FE0164B1B781B0719D5144B1B78DB0702
:400F400001D5252200E02422104B1A70002300240FE00123802424060BE00123012408E001238024640004E00023022401E000230024012B02D1FFF76DFF02E0054A064BA1
:400F80001A60200010BDC04668002440880100206000244017030000000F244070B582B004000D001600244B1B78102B40D10720FFF7DEFC214B1B68DB0734D4FA239B00AA
:400FC0005E43019600221E4B1A601E4A1E4B1A601E4A1F4B1A606400FF231C40002D03D12422154B1A7004E02522134B1A7001231C43184B1C600222174B1A60124B1C68B4
:401000000823FF3320001840144B1B68C02423401843040001A8FFF74BFF2043EED0FFF75BFF040000E008240720FFF797FC00E00424200002B070BD8801002064002440C1
:40104000080F244017030000000F2440ED0F0000C00F24404002244068002440400F244010B582B0104B1B789B061AD5FA239B00584301900D4B1B689B0601D5182200E04F
:4010800010220B4B1A600B4B18681223FF331840040001A8FFF70CFF2043F4D0FFF71CFF00E0042002B010BD880100206400244068002440000F244010B582B00D4B1B789E
:4010C0009B0613D5FA239B00594301910A4B18600A4B18680823FF331840040001A8FFF7E7FE2043F4D0FFF7F7FE00E0042002B010BDC0468801002040022440000F244045
:40110000F0B583B004000D00164B1B789B0626D5FA239B005A430192134B18680223FF3318400700114B1B6804261E4001A8FFF7BFFE384333000343EED0002E05D00C4BEB
:401140001B682B700B4A094B1A60FFF7C5FE002806D1002C04D10422074B1A6000E0042003B0F0BD88010020000F2440C00F244040032440ED0F000068002440054B1B688E
:401180002022134000D0082301221343024A13607047C046640024406800244010B582B0154B1B789B0623D5FA239B005A4301924000FF240440002903D124220E4B1A70DE
:4011C00004E025220C4B1A7001231C43FFF7D6FF0A4B1C600A4B18680823FF331840040001A8FFF765FE2043F4D0FFF775FE00E0042002B010BDC0468801002040022440CC
:40120000000F2440000000000230800803D001300238FCD1C046C0467047EFF3108072B6704780F310887047044B1B681F221340082BF9D0024B18607047C046080227404B
:401240004002274070B50400FFF7E7FF0500102C05D8104A136803218B43136016E0202C07D80C490B6803229343023A13430B600CE0302C07D807490B6803229343013A67
:4012800013430B6002E00020FFF77CFB2800FFF7C8FF70BD3000104010B5AF4B1B68002B00D09847AD4B1B68DB0702D50022AC4B1A60AC4B1B789B0628D5AB4B1B68DB0508
:4012C00007D5AA4A1188C0239B000B431380012300E00023A44A1268D20706D5A34A118890239B000B4313800123002B0FD09D4A1278D20701D5012200E002229B49088845
:4013000002430A800021974A117000E00023954A1278920600D417E1934A1268D20611D51022934B1A608F4B1B78DB0701D5012300E002238D4A11880B4313801022894B47
:401340001A7007E1874A1278120720D5864A126892070AD50222864B1A60844A118888239B000B431380012311E07E4A1278D20703D525217B4A117009E02421794A1170BD
:401380007C4A1268002A02D014397B4A1160754A1278520700D4AEE0724A1278D20749D5764A1268120727D5754A1268754909681F240C40744909686418141B082C09D8F9
:4013C000002C16D1714A1168714B0B401360012308340EE008240CE06B4A11686D48006841186D480068C0B20870116801311160013C002CF0D119E0604A1268520715D575
:40140000614A116863480068411863480068C0B208701168013111601168594A1268914203D204215D4A116000E001235C495D4A116060E04C4A1268920726D502224C4B28
:401440001A6059490B681D321A40096880231B020B4000D001239B18544A1168CB1A13601268534B1A60414A118884239B000B431380504B1A68802149020A431A60196878
:401480004D4A0A401A60012335E04C4A1268D2061ED427E0454A1168364A126891421DD2344A1268013A414909688A4204D1402243490A6030490A603C4A116841480068F9
:4014C00041180978C9B240480160116801311160354A12681F210A40082ADBD11021384A116008E0354A1268520604D52F4B1A682F4B1A600123002B2CD0244A1168244B6A
:401500000B4013600023314A13601B4A1360304B1B789B070ED5134B1B78DB0701D5092300E00A23114A11880B43138060220D4B1A700FE0274B1B689B0601D5182200E0E1
:401540001022164B1A6005E0064B1B78DB0601D4FFF780FC10BDC0467C0100208C0E2440880E2440880100200C0F244098010020000F24409C010020880F2440CC0F2440BA
:401580009001002008032440A801002060002440FFFEFFFF8C0100204003244068002440ED0F0000C00F24400802244094010020A001002004022440FFFFFEFF8C0F2440EC
:4015C000800F2440AC01002040022440C80F2440A401002064002440002243088B4274D303098B425FD3030A8B4244D3030B8B4228D3030C8B420DD3FF22090212BA030CA7
:401600008B4202D31212090265D0030B8B4219D300E0090AC30B8B4201D3CB03C01A5241830B8B4201D38B03C01A5241430B8B4201D34B03C01A5241030B8B4201D30B03AF
:40164000C01A5241C30A8B4201D3CB02C01A5241830A8B4201D38B02C01A5241430A8B4201D34B02C01A5241030A8B4201D30B02C01A5241CDD2C3098B4201D3CB01C01AAB
:40168000524183098B4201D38B01C01A524143098B4201D34B01C01A524103098B4201D30B01C01A5241C3088B4201D3CB00C01A524183088B4201D38B00C01A5241430892
:4016C0008B4201D34B00C01A5241411A00D20146524110467047FFE701B5002000F006F802BDC0460029F7D076E770477047C046014B18687047C046380100200E4B70B5ED
:4017000000251E000D4CE41AA410A54204D0AB00F35898470135F8E700F058FE084B00251E00084CE41AA410A54204D0AB00F35898470135F8E770BDD8230000D82300000C
:40174000D8230000E0230000002310B59A4203D0CC5CC4540133F9E710BD00000EB410B59DB002A9029008610B48822488604861012040421FABC881084804CBA4000068CE
:4017800001938C8100F06EF80023029A13701DB010BC08BC03B01847FFFFFF7F38010020F0B58E6885B007000C00039201939E4243D890238A89DB001A423ED00325096900
:4017C000236801985B1A029363695D43EB0F5D19029B6D1001331B18AB4200D91D00530510D52900380000F037FB061E14D0029A2169FFF7A9FFA289194B13408022134315
:40180000A38112E02A00380000F086FB061E0CD12169380000F0D4FA0C23402201203B60A38940421343A38117E0029B2661F61826606561019EED1AA560019BB34200D246
:401840001E0032000399206800F0A5FA0020A3689B1BA36023689E19266005B0F0BDC0467FFBFFFFF0B59FB0029005938B890F0016001B0610D50B69002B0DD1402100F0AE
:40188000EBFA38603861002804D10C23029A01381360D8E040237B61002306AD6B6120336B761033AB7634002378002B03D1A31B049312D003E0252BF9D00134F4E7A31B9E
:4018C000320039000298FFF76BFF431C00D1B4E06A69049B944663446B612378002B00D1ABE00122002352426A6002A95432521801342B60EB60AB601370AB65534E2178BC
:401900000522300000F03CFA002807D00123801B83402A68013413432B60EFE72B68DA0604D55322202102A8121811701A0704D553222B2102A81218117022782A2A03D003
:40194000099B00200A210EE0059A111D12680591002A01DB099204E05242EA60022213432B6001340BE02278303A092A04D84B4301349B180120F6E7002800D0099323786F
:401980002E2B1ED163782A2B0AD1059B02341A1D1B680592002B01DA01235B42079310E000230A201A0001346B6021783039092904D84243013452180123F6E7002B00D0C5
:4019C0000792234E21780322300000F0D9F9002806D04023801B83402A68013413432B60217806221B48661C297600F0C9F9002812D0194B002B06D10722059B0733934386
:401A00000833059314E005AB00933A00134B2900029800E000BF07E005AB00933A000F4B2900029800F08AF80390039B013304D06B69039A9B186B6135E7BB890B985B0622
:401A400001D5012040421FB0F0BDC046962300009C230000A023000000000000A1170000F7B5170001938A680B6900900C00934200DA130022003B6043321278002A01D0A6
:401A800001333B6023689B0602D53B6802333B60062523681D401ED0230043331B785A1E9341226892061CD53020E1184331087021005A1C45310978A218433202331170AD
:401AC0000FE022000123193201990098089EB047431C0ED00135E3683A689B1A9D42F0DBDAE72200019943320098089DA847431C02D10120404220E006232068E1683A6849
:401B000003400025042B03D18D1AEB43DB171D40A3682269934201DD9B1AED180027BD420AD0220001231A3201990098089EB047431CDED00137F2E70020FEBDF0B58BB0D9
:401B400006920A0043320793059004920A7E0C00109B6E2A00D1ABE011D8632A22D009D8002A00D1B5E0582A00D0C5E045310A70814A4FE0642A1DD0692A1BD0BCE0732A6A
:401B800000D1AAE009D86F2A29D0702A00D0B3E0202209680A43226037E0752A1FD0782A33D0A9E00E001A684236111D196013683370A4E021681A68080606D4490604D599
:401BC000111D19600023D55E02E0111D19601568002D3BDA2D23049A6D42137036E021681A68080606D4490604D51568111D1960ADB202E0111D196015685F4B227E0393E6
:401C000008276F2A1DD00A271BE022007821453211705A4A19680392081D226818600D68100602D4500600D5ADB2D30702D520231A4322601027002D03D1202322689A438F
:401C400022602300002243331A7002E00A274A4B03936368A360002B09DB0422216891432160002D05D1049E002B11D07BE0002D79D0049E28003900FFF734FD039B013EF5
:401C80005B5C280033703900FFF7A6FC051EF1D1082F09D12368DB0706D563682269934202DC3023013E3370049B9B1B23612BE009681A68080607D4490605D5111D1960C5
:401CC0001368A28A1A8004E0111D1960136862691A600023049E236116E01A68111D1960166800216268300000F04AF8002801D0801B6060636803E02600423632700123BF
:401D000023610023049A1370079B09AA00932100069B0598FFF7A4FE431C02D10120404227E02369320006990598079DA847431CF4D0236800259B070FD4099BE068984275
:401D400017DA180015E022000123193206990598079EB047431CE1D00135E368099A9B1A9D42F0DBE9E72600039B42361B7833708EE70BB0F0BDC046A7230000B82300009F
:401D8000C9B28218904204D003788B4202D00130F8E70020704710B5884202D98B18984201D3002305E09B1A013A08D3995C8154FAE7934203D0CC5CC4540133F9E710BD65
:401DC00070B50500002944D00C1F2368002B00DAE418280000F0D8F81E4A13681100002B02D16360146031E0A3420DD92268A018834203D118685B688218226063600C606F
:401E000024E0A24203D813005A68002AF9D11E689819A0420BD12168711858181960824214D110685268411819605A600EE0A04202D90C232B6009E021686018824203D1D8
:401E4000106852684118216062605C60280000F09CF870BD84010020032370B5CD1C9D43083506000C2D01D20C2501E0002D01DBA94202D90C23336048E0300000F084F890
:401E8000234B1C681A002100002913D00B685B1B0DD40B2B02D90B60CC181EE08C4202D1636813601AE04B6863600C0016E00C004968E9E7174C2368002B03D1300000F0D6
:401EC00051F820602900300000F04CF8431C18D00323C41C9C43A0420DD12560300000F054F8200007220B30231D9043C31A0ED05A42E2500BE0211A300000F033F8431CBF
:401F0000EBD10C233000336000F03FF8002070BD8401002080010020F8B506000C001500002904D11100FFF797FF040018E0002A03D1FFF745FF2C0012E000F027F88542A2
:401F40000ED929003000FFF787FF071E07D021002A00FFF7F9FB21003000FFF731FF3C002000F8BD002370B5064C050008002360FEF7CEFB431C03D12368002B00D02B60C0
:401F800070BDC046B0010020704770470B1F1A68101F002A04DA891804390B68D018043870470000000000002564000030782530325800000D0A3D3D3D20564C3631383031
:401FC0005820496E697469616C697A6174696F6E203D3D3D0D0A00004D6F64656C2049443A200000202D204552524F523A2057726F6E67204944210D0A000000202D204FBC
:402000004B0D0A004D6F64656C205265763A20002E0000002C204D6F64756C65205265763A200000467265736820626F6F742064657465637465642C206170706C79696EA8
:402040006720636F6E66696775726174696F6E2E2E2E0D0A00000000436F6E66696775726174696F6E20636F6D706C6574650D0A00000000416C726561647920636F6E6650
:402080006967757265640D0A00000000E29C9320496E697469616C697A6174696F6E207375636365737366756C0D0A005B4E6F206572726F725D00005B564353454C2063FF
:4020C0006F6E74696E7569747920746573745D005B564353454C207761746368646F6720746573745D0000005B564353454C207761746368646F675D000000005B504C4C41
:4021000031206C6F636B5D005B504C4C32206C6F636B5D005B4561726C7920636F6E76657267656E636520657374696D6174655D000000005B4D617820636F6E7665726738
:40214000656E63655D0000005B4E6F207461726765742069676E6F72655D00005B4D617820534E525D0000005B5261772072616E67696E6720616C676F20756E64657266C4
:402180006C6F775D000000005B5261772072616E67696E6720616C676F206F766572666C6F775D005B52616E67696E6720616C676F20756E646572666C6F775D00000000FA
:4021C0005B52616E67696E6720616C676F206F766572666C6F775D005B556E6B6E6F776E206572726F725D0054696D656F757421200000004572726F722000000D0A0D0A98
:40220000000000003D3D3D3D3D3D3D3D3D3D3D3D3D3D3D3D3D3D3D3D3D3D3D3D3D3D3D3D3D3D3D3D3D3D3D3D3D0D0A002020564C36313830582044697374616E63652053EF
:40224000656E736F7220436F6D706C65746520200D0A00000D0AE29C9720496E697469616C697A6174696F6E206661696C6564210D0A000053797374656D2068616C746503
:40228000642E0D0A000000000D0A3D3D3D205374617274696E672044697374616E6365204D6561737572656D656E7473203D3D3D0D0A000052616E67653A20302D323030B3
:4022C0006D6D2C2055706461746573206576657279203530306D730D0A0D0A000D0A2D2D2D204D6561737572656D656E7420426C6F636B2000000000202D2D2D0D0A0000A7
:40230000230000004F7574206F662072616E6765202F204E6F2074617267657400000000206D6D20000000005B0000003D000000205741524E494E473A20546F6F20636CEA
:402340006F73652100000000204E656172000000204D656469756D0020466172000000002056657279206661720000000D0A546F6F206D616E79206572726F72732C2072DD
:4023800065696E697469616C697A696E672E2E2E0D0A00004300232D302B2000686C4C0065666745464700303132333435363738394142434445460030313233343536379C
:4023C000383961626364656600000000F8B5C046F8BC08BC9E4670474D01000089070000F8B5C046F8BC08BC9E4670472501000000240000B800002088000000780000008B
:4024000000000000B8010020010000000000E02EC05D00001800000000366E01040404000000000000000000000000000000000000000000000000000000000000000000CE
:4024400094230000000000000000000000000000000000000000000000000000000000000000000000000000000000000000000000000000000000000000000000000000A5
:40248000D800002000000000000000000000000000000000000000000000000000000000000000000000000000000000000000000000000000000000000000000000000024
:4024C00000000000000000000000000000000000000000000000000000000000000000000000000000000000000000000000000000000000000000000000000000000000DC
:40250000000000000000000000000000000000000000000000000000000000000000000000000000000000000000000000000000000000000000000000000000000000009B
:40254000000000000000000000000000000000000000000000000000000000000000000000000000000000000000000000000000000000000000000000000000000000005B
:40258000000000000000000000000000000000000000000000000000000000000000000000000000000000000000000000000000000000000000000000000000000000001B
:020000040003F7
:0200000490303A
:02000000E11706
:0200000490402A
:4000000000000000000000000000000000000000000000000000000000000000000000000000000000000000000000000000000000000000000000000000000000000000C0
:400040000000000000000000000000000000000000000000000000000000000000000000000000000000000000000000000000000000000000000000000000000000000080
:0200000490501A
:0C0000000002280D11B800012818F2CFF2
:0200000490600A
:0100000001FE
:00000001FF